{
  "abi": [
    {
      "inputs": [
        {
          "internalType": "contract IERC3156FlashLender",
          "name": "lender_",
          "type": "address"
        },
        {
          "internalType": "address",
          "name": "owner_",
          "type": "address"
        }
      ],
      "stateMutability": "nonpayable",
      "type": "constructor"
    },
    {
      "inputs": [],
      "name": "Unauthorized",
      "type": "error"
    },
    {
      "inputs": [],
      "name": "UntrustedInitiator",
      "type": "error"
    },
    {
      "inputs": [],
      "name": "UntrustedLender",
      "type": "error"
    },
    {
      "inputs": [
        {
          "internalType": "address",
          "name": "token",
          "type": "address"
        },
        {
          "internalType": "uint256",
          "name": "amount",
          "type": "uint256"
        },
        {
          "components": [
            {
              "internalType": "address",
              "name": "target",
              "type": "address"
            },
            {
              "internalType": "bool",
              "name": "allowFailure",
              "type": "bool"
            },
            {
              "internalType": "uint256",
              "name": "value",
              "type": "uint256"
            },
            {
              "internalType": "bytes",
              "name": "callData",
              "type": "bytes"
            }
          ],
          "internalType": "struct FlashBorrower.Call3[]",
          "name": "calls",
          "type": "tuple[]"
        }
      ],
      "name": "flashBorrow",
      "outputs": [],
      "stateMutability": "nonpayable",
      "type": "function"
    },
    {
      "inputs": [
        {
          "internalType": "address",
          "name": "initiator",
          "type": "address"
        },
        {
          "internalType": "address",
          "name": "",
          "type": "address"
        },
        {
          "internalType": "uint256",
          "name": "",
          "type": "uint256"
        },
        {
          "internalType": "uint256",
          "name": "",
          "type": "uint256"
        },
        {
          "internalType": "bytes",
          "name": "data",
          "type": "bytes"
        }
      ],
      "name": "onFlashLoan",
      "outputs": [
        {
          "internalType": "bytes32",
          "name": "",
          "type": "bytes32"
        }
      ],
      "stateMutability": "nonpayable",
      "type": "function"
    }
  ],
  "bytecode": {
    "object": "0x60a060405234801561001057600080fd5b50604051610c6e380380610c6e83398101604081905261002f9161006c565b600080546001600160a01b0319166001600160a01b03938416179055166080526100a6565b6001600160a01b038116811461006957600080fd5b50565b6000806040838503121561007f57600080fd5b825161008a81610054565b602084015190925061009b81610054565b809150509250929050565b608051610bae6100c0600039600060800152610bae6000f3fe608060405234801561001057600080fd5b50600436106100365760003560e01c806315474d4a1461003b57806323e30c8b14610050575b600080fd5b61004e610049366004610611565b610075565b005b61006361005e36600461069b565b610371565b60405190815260200160405180910390f35b336001600160a01b037f000000000000000000000000000000000000000000000000000000000000000016146100d7576040517f82b4290000000000000000000000000000000000000000000000000000000000815260040160405180910390fd5b600080546040517fdd62ed3e0000000000000000000000000000000000000000000000000000000081523060048201526001600160a01b0391821660248201529086169063dd62ed3e90604401602060405180830381865afa158015610141573d6000803e3d6000fd5b505050506040513d601f19601f820116820180604052508101906101659190610741565b600080546040517fd9d98ce40000000000000000000000000000000000000000000000000000000081526001600160a01b038981166004830152602482018990529394509192169063d9d98ce490604401602060405180830381865afa1580156101d3573d6000803e3d6000fd5b505050506040513d601f19601f820116820180604052508101906101f79190610741565b90506000610205828761075a565b6000549091506001600160a01b038089169163095ea7b39116610228848761075a565b6040517fffffffff0000000000000000000000000000000000000000000000000000000060e085901b1681526001600160a01b03909216600483015260248201526044016020604051808303816000875af115801561028b573d6000803e3d6000fd5b505050506040513d601f19601f820116820180604052508101906102af9190610791565b50600085856040516020016102c59291906107de565b60408051601f19818403018152908290526000547f5cffe9de0000000000000000000000000000000000000000000000000000000083529092506001600160a01b031690635cffe9de906103239030908c908c908790600401610902565b6020604051808303816000875af1158015610342573d6000803e3d6000fd5b505050506040513d601f19601f820116820180604052508101906103669190610791565b505050505050505050565b600080546001600160a01b031633146103b6576040517f48bffb3200000000000000000000000000000000000000000000000000000000815260040160405180910390fd5b6001600160a01b03871630146103f8576040517f0200197600000000000000000000000000000000000000000000000000000000815260040160405180910390fd5b6000610406838501856109c7565b90506104118161043f565b507f439148f0bbc682ca079e46d6e2c2f0c1e3b820f1a291b069d8882abf8cf18dd998975050505050505050565b80516060908067ffffffffffffffff81111561045d5761045d610957565b6040519080825280602002602001820160405280156104a357816020015b60408051808201909152600081526060602082015281526020019060019003908161047b5790505b50604080516080810182526000808252602082018190529181018290526060808201529193505b828110156105ed5760008482815181106104e6576104e6610b46565b6020026020010151905085828151811061050257610502610b46565b6020026020010151925082600001516001600160a01b0316836040015184606001516040516105319190610b5c565b60006040518083038185875af1925050503d806000811461056e576040519150601f19603f3d011682016040523d82523d6000602084013e610573565b606091505b5060208084019190915290151580835290840135176105e4577f08c379a000000000000000000000000000000000000000000000000000000000600052602060045260176024527f4d756c746963616c6c333a2063616c6c206661696c656400000000000000000060445260646000fd5b506001016104ca565b505050919050565b80356001600160a01b038116811461060c57600080fd5b919050565b6000806000806060858703121561062757600080fd5b610630856105f5565b935060208501359250604085013567ffffffffffffffff8082111561065457600080fd5b818701915087601f83011261066857600080fd5b81358181111561067757600080fd5b8860208260051b850101111561068c57600080fd5b95989497505060200194505050565b60008060008060008060a087890312156106b457600080fd5b6106bd876105f5565b95506106cb602088016105f5565b94506040870135935060608701359250608087013567ffffffffffffffff808211156106f657600080fd5b818901915089601f83011261070a57600080fd5b81358181111561071957600080fd5b8a602082850101111561072b57600080fd5b6020830194508093505050509295509295509295565b60006020828403121561075357600080fd5b5051919050565b6000821982111561077b57634e487b7160e01b600052601160045260246000fd5b500190565b801515811461078e57600080fd5b50565b6000602082840312156107a357600080fd5b81516107ae81610780565b9392505050565b81835281816020850137506000828201602090810191909152601f909101601f19169091010190565b60208082528181018390526000906040808401600586901b8501820187855b888110156108c457878303603f190184528135368b9003607e1901811261082357600080fd5b8a0160806001600160a01b03610838836105f5565b1685528782013561084881610780565b151585890152818701358786015260608083013536849003601e1901811261086f57600080fd5b90920188810192903567ffffffffffffffff81111561088d57600080fd5b80360384131561089c57600080fd5b82828801526108ae83880182866107b5565b978a0197965050509287019250506001016107fd565b509098975050505050505050565b60005b838110156108ed5781810151838201526020016108d5565b838111156108fc576000848401525b50505050565b60006001600160a01b0380871683528086166020840152508360408301526080606083015282518060808401526109408160a08501602087016108d2565b601f01601f19169190910160a00195945050505050565b634e487b7160e01b600052604160045260246000fd5b6040516080810167ffffffffffffffff8111828210171561099057610990610957565b60405290565b604051601f8201601f1916810167ffffffffffffffff811182821017156109bf576109bf610957565b604052919050565b600060208083850312156109da57600080fd5b823567ffffffffffffffff808211156109f257600080fd5b818501915085601f830112610a0657600080fd5b813581811115610a1857610a18610957565b8060051b610a27858201610996565b9182528381018501918581019089841115610a4157600080fd5b86860192505b83831015610b3957823585811115610a5f5760008081fd5b86016080601f19828d038101821315610a785760008081fd5b610a8061096d565b610a8b8b85016105f5565b8152604080850135610a9c81610780565b828d01526060858101358284015293850135938a851115610abd5760008081fd5b84860195508f603f870112610ad457600094508485fd5b8c86013594508a851115610aea57610aea610957565b610afa8d85601f88011601610996565b93508484528f82868801011115610b115760008081fd5b848287018e86013760009484018d019490945250918201528352509186019190860190610a47565b9998505050505050505050565b634e487b7160e01b600052603260045260246000fd5b60008251610b6e8184602087016108d2565b919091019291505056fea26469706673582212207e8ffef1cdd7d4da181de2de1d03c032627772e117e9e16c9e50f1ff11e5930b64736f6c634300080f0033",
    "linkReferences": {}
  },
  "methodIdentifiers": {
    "flashBorrow(address,uint256,(address,bool,uint256,bytes)[])": "15474d4a",
    "onFlashLoan(address,address,uint256,uint256,bytes)": "23e30c8b"
  },
  "id": 0
}