{
  "abi": [
    {
      "inputs": [
        {
          "internalType": "contract IERC3156FlashLender",
          "name": "lender_",
          "type": "address"
        },
        {
          "internalType": "address",
          "name": "owner_",
          "type": "address"
        }
      ],
      "stateMutability": "nonpayable",
      "type": "constructor"
    },
    {
      "inputs": [],
      "name": "EmptyBalance",
      "type": "error"
    },
    {
      "inputs": [],
      "name": "Unauthorized",
      "type": "error"
    },
    {
      "inputs": [],
      "name": "UntrustedInitiator",
      "type": "error"
    },
    {
      "inputs": [],
      "name": "UntrustedLender",
      "type": "error"
    },
    {
      "inputs": [
        {
          "internalType": "address",
          "name": "token",
          "type": "address"
        },
        {
          "internalType": "uint256",
          "name": "amount",
          "type": "uint256"
        },
        {
          "components": [
            {
              "internalType": "address",
              "name": "target",
              "type": "address"
            },
            {
              "internalType": "bool",
              "name": "allowFailure",
              "type": "bool"
            },
            {
              "internalType": "uint256",
              "name": "value",
              "type": "uint256"
            },
            {
              "internalType": "bytes",
              "name": "callData",
              "type": "bytes"
            }
          ],
          "internalType": "struct FlashBorrower.Call3[]",
          "name": "calls",
          "type": "tuple[]"
        }
      ],
      "name": "flashBorrow",
      "outputs": [],
      "stateMutability": "nonpayable",
      "type": "function"
    },
    {
      "inputs": [],
      "name": "lender",
      "outputs": [
        {
          "internalType": "contract IERC3156FlashLender",
          "name": "",
          "type": "address"
        }
      ],
      "stateMutability": "view",
      "type": "function"
    },
    {
      "inputs": [
        {
          "internalType": "address",
          "name": "initiator",
          "type": "address"
        },
        {
          "internalType": "address",
          "name": "",
          "type": "address"
        },
        {
          "internalType": "uint256",
          "name": "",
          "type": "uint256"
        },
        {
          "internalType": "uint256",
          "name": "",
          "type": "uint256"
        },
        {
          "internalType": "bytes",
          "name": "data",
          "type": "bytes"
        }
      ],
      "name": "onFlashLoan",
      "outputs": [
        {
          "internalType": "bytes32",
          "name": "",
          "type": "bytes32"
        }
      ],
      "stateMutability": "nonpayable",
      "type": "function"
    },
    {
      "inputs": [],
      "name": "owner",
      "outputs": [
        {
          "internalType": "address",
          "name": "",
          "type": "address"
        }
      ],
      "stateMutability": "view",
      "type": "function"
    },
    {
      "inputs": [
        {
          "internalType": "address payable",
          "name": "to",
          "type": "address"
        }
      ],
      "name": "withdrawEth",
      "outputs": [
        {
          "internalType": "bool",
          "name": "",
          "type": "bool"
        }
      ],
      "stateMutability": "nonpayable",
      "type": "function"
    },
    {
      "inputs": [
        {
          "internalType": "contract IERC20",
          "name": "token",
          "type": "address"
        },
        {
          "internalType": "address",
          "name": "to",
          "type": "address"
        },
        {
          "internalType": "uint256",
          "name": "amount",
          "type": "uint256"
        },
        {
          "internalType": "bool",
          "name": "max",
          "type": "bool"
        }
      ],
      "name": "withdrawToken",
      "outputs": [
        {
          "internalType": "bool",
          "name": "",
          "type": "bool"
        }
      ],
      "stateMutability": "nonpayable",
      "type": "function"
    },
    {
      "stateMutability": "payable",
      "type": "receive"
    }
  ],
  "bytecode": {
    "object": "0x60a060405234801561001057600080fd5b5060405161101c38038061101c83398101604081905261002f9161006c565b600080546001600160a01b0319166001600160a01b03938416179055166080526100a6565b6001600160a01b038116811461006957600080fd5b50565b6000806040838503121561007f57600080fd5b825161008a81610054565b602084015190925061009b81610054565b809150509250929050565b608051610f466100d66000396000818161012c015281816101910152818161054301526106050152610f466000f3fe6080604052600436106100695760003560e01c80638186787f116100435780638186787f146100fa5780638da5cb5b1461011a578063bcead63e1461016657600080fd5b806315474d4a1461007557806323e30c8b1461009757806325e16063146100ca57600080fd5b3661007057005b600080fd5b34801561008157600080fd5b50610095610090366004610932565b610186565b005b3480156100a357600080fd5b506100b76100b23660046109be565b610468565b6040519081526020015b60405180910390f35b3480156100d657600080fd5b506100ea6100e5366004610a68565b610536565b60405190151581526020016100c1565b34801561010657600080fd5b506100ea610115366004610a9a565b6105f8565b34801561012657600080fd5b5061014e7f000000000000000000000000000000000000000000000000000000000000000081565b6040516001600160a01b0390911681526020016100c1565b34801561017257600080fd5b5060005461014e906001600160a01b031681565b336001600160a01b037f000000000000000000000000000000000000000000000000000000000000000016146101ce576040516282b42960e81b815260040160405180910390fd5b600080546040517fdd62ed3e0000000000000000000000000000000000000000000000000000000081523060048201526001600160a01b0391821660248201529086169063dd62ed3e90604401602060405180830381865afa158015610238573d6000803e3d6000fd5b505050506040513d601f19601f8201168201806040525081019061025c9190610aed565b600080546040517fd9d98ce40000000000000000000000000000000000000000000000000000000081526001600160a01b038981166004830152602482018990529394509192169063d9d98ce490604401602060405180830381865afa1580156102ca573d6000803e3d6000fd5b505050506040513d601f19601f820116820180604052508101906102ee9190610aed565b905060006102fc8287610b06565b6000549091506001600160a01b038089169163095ea7b3911661031f8487610b06565b6040517fffffffff0000000000000000000000000000000000000000000000000000000060e085901b1681526001600160a01b03909216600483015260248201526044016020604051808303816000875af1158015610382573d6000803e3d6000fd5b505050506040513d601f19601f820116820180604052508101906103a69190610b2c565b50600085856040516020016103bc929190610b72565b60408051601f19818403018152908290526000547f5cffe9de0000000000000000000000000000000000000000000000000000000083529092506001600160a01b031690635cffe9de9061041a9030908c908c908790600401610c98565b6020604051808303816000875af1158015610439573d6000803e3d6000fd5b505050506040513d601f19601f8201168201806040525081019061045d9190610b2c565b505050505050505050565b600080546001600160a01b031633146104ad576040517f48bffb3200000000000000000000000000000000000000000000000000000000815260040160405180910390fd5b6001600160a01b03871630146104ef576040517f0200197600000000000000000000000000000000000000000000000000000000815260040160405180910390fd5b60006104fd83850185610d5d565b905061050881610764565b507f439148f0bbc682ca079e46d6e2c2f0c1e3b820f1a291b069d8882abf8cf18dd998975050505050505050565b6000336001600160a01b037f00000000000000000000000000000000000000000000000000000000000000001614610580576040516282b42960e81b815260040160405180910390fd5b476000036105ba576040517f2313b4b600000000000000000000000000000000000000000000000000000000815260040160405180910390fd5b6040516001600160a01b038316904780156108fc02916000818181858888f193505050501580156105ef573d6000803e3d6000fd5b50600192915050565b6000336001600160a01b037f00000000000000000000000000000000000000000000000000000000000000001614610642576040516282b42960e81b815260040160405180910390fd5b81156106cc576040517f70a082310000000000000000000000000000000000000000000000000000000081523060048201526001600160a01b038616906370a0823190602401602060405180830381865afa1580156106a5573d6000803e3d6000fd5b505050506040513d601f19601f820116820180604052508101906106c99190610aed565b92505b6040517fa9059cbb0000000000000000000000000000000000000000000000000000000081526001600160a01b0385811660048301526024820185905286169063a9059cbb906044016020604051808303816000875af1158015610734573d6000803e3d6000fd5b505050506040513d601f19601f820116820180604052508101906107589190610b2c565b50600195945050505050565b80516060908067ffffffffffffffff81111561078257610782610ced565b6040519080825280602002602001820160405280156107c857816020015b6040805180820190915260008152606060208201528152602001906001900390816107a05790505b50604080516080810182526000808252602082018190529181018290526060808201529193505b8281101561091257600084828151811061080b5761080b610ede565b6020026020010151905085828151811061082757610827610ede565b6020026020010151925082600001516001600160a01b0316836040015184606001516040516108569190610ef4565b60006040518083038185875af1925050503d8060008114610893576040519150601f19603f3d011682016040523d82523d6000602084013e610898565b606091505b506020808401919091529015158083529084013517610909577f08c379a000000000000000000000000000000000000000000000000000000000600052602060045260176024527f4d756c746963616c6c333a2063616c6c206661696c656400000000000000000060445260646000fd5b506001016107ef565b505050919050565b6001600160a01b038116811461092f57600080fd5b50565b6000806000806060858703121561094857600080fd5b84356109538161091a565b935060208501359250604085013567ffffffffffffffff8082111561097757600080fd5b818701915087601f83011261098b57600080fd5b81358181111561099a57600080fd5b8860208260051b85010111156109af57600080fd5b95989497505060200194505050565b60008060008060008060a087890312156109d757600080fd5b86356109e28161091a565b955060208701356109f28161091a565b94506040870135935060608701359250608087013567ffffffffffffffff80821115610a1d57600080fd5b818901915089601f830112610a3157600080fd5b813581811115610a4057600080fd5b8a6020828501011115610a5257600080fd5b6020830194508093505050509295509295509295565b600060208284031215610a7a57600080fd5b8135610a858161091a565b9392505050565b801515811461092f57600080fd5b60008060008060808587031215610ab057600080fd5b8435610abb8161091a565b93506020850135610acb8161091a565b9250604085013591506060850135610ae281610a8c565b939692955090935050565b600060208284031215610aff57600080fd5b5051919050565b60008219821115610b2757634e487b7160e01b600052601160045260246000fd5b500190565b600060208284031215610b3e57600080fd5b8151610a8581610a8c565b81835281816020850137506000828201602090810191909152601f909101601f19169091010190565b60208082528181018390526000906040808401600586901b8501820187855b88811015610c5a57878303603f190184528135368b9003607e19018112610bb757600080fd5b8a0160808135610bc68161091a565b6001600160a01b0316855281880135610bde81610a8c565b151585890152818701358786015260608083013536849003601e19018112610c0557600080fd5b90920188810192903567ffffffffffffffff811115610c2357600080fd5b803603841315610c3257600080fd5b8282880152610c448388018286610b49565b978a019796505050928701925050600101610b91565b509098975050505050505050565b60005b83811015610c83578181015183820152602001610c6b565b83811115610c92576000848401525b50505050565b60006001600160a01b038087168352808616602084015250836040830152608060608301528251806080840152610cd68160a0850160208701610c68565b601f01601f19169190910160a00195945050505050565b634e487b7160e01b600052604160045260246000fd5b6040516080810167ffffffffffffffff81118282101715610d2657610d26610ced565b60405290565b604051601f8201601f1916810167ffffffffffffffff81118282101715610d5557610d55610ced565b604052919050565b60006020808385031215610d7057600080fd5b823567ffffffffffffffff80821115610d8857600080fd5b818501915085601f830112610d9c57600080fd5b813581811115610dae57610dae610ced565b8060051b610dbd858201610d2c565b9182528381018501918581019089841115610dd757600080fd5b86860192505b83831015610ed157823585811115610df55760008081fd5b86016080601f19828d038101821315610e0e5760008081fd5b610e16610d03565b8a840135610e238161091a565b8152604084810135610e3481610a8c565b828d01526060858101358284015293850135938a851115610e555760008081fd5b84860195508f603f870112610e6c57600094508485fd5b8c86013594508a851115610e8257610e82610ced565b610e928d85601f88011601610d2c565b93508484528f82868801011115610ea95760008081fd5b848287018e86013760009484018d019490945250918201528352509186019190860190610ddd565b9998505050505050505050565b634e487b7160e01b600052603260045260246000fd5b60008251610f06818460208701610c68565b919091019291505056fea2646970667358221220280e70a5cc6944b26e03583900f29a385307d45883fe87d540a4cc0e78c161a964736f6c634300080f0033",
    "linkReferences": {}
  },
  "methodIdentifiers": {
    "flashBorrow(address,uint256,(address,bool,uint256,bytes)[])": "15474d4a",
    "lender()": "bcead63e",
    "onFlashLoan(address,address,uint256,uint256,bytes)": "23e30c8b",
    "owner()": "8da5cb5b",
    "withdrawEth(address)": "25e16063",
    "withdrawToken(address,address,uint256,bool)": "8186787f"
  },
  "id": 0
}